:020000040800F2
:1000000000800120C1420008F940000801410008B9
:1000100009410008114100081941000800000000D2
:10002000000000000000000000000000E17C00086B
:100030002141000800000000117D00082F41000848
:100040001143000811430008114300081143000840
:100050001143000811430008114300081143000830
:100060001143000811430008114300081143000820
:100070001143000811430008114300081143000810
:10008000114300081143000811430008000000005C
:100090000000000000000000000000001143000804
:1000A00011430008114300081143000811430008E0
:1000B00011430008114300081143000811430008D0
:1000C00011430008114300081143000811430008C0
:1000D000114300081143000811430008000000000C
:1000E00011430008114300081143000800000000FC
:1000F00000000000000000000000000011430008A4
:1001000000000000114300081143000811430008DB
:1001100000000000000000000000000000000000DF
:10012000114300081143000811430008114300085F
:100130001143000800000000000000000000000063
:100140000000000000000000000000001143000853
:10015000114300081143000811430008114300082F
:1001600011430008114300080000000000000000D7
:10017000000000000000000000000000000000007F
:100180000000000011430008000000000000000013
:04019000114300080F
:1001A00010B5054C237833B9044B13B10448AFF3B1
:1001B00000800123237010BD4402002000000000D5
:1001C00044C7000808B5034B1BB103490348AFF30C
:1001D000008008BD000000004802002044C700085D
:1001E00001F0FF01102A2BDB10F0070F08D010F8E8
:1001F000013B013A8B422DD010F0070F42B3F6D1EC
:10020000F0B441EA012141EA014122F007047FF004
:1002100000070023F0E80256083C85EA010586EA5B
:10022000010685FA47F5A3FA87F586FA47F6A5FA97
:1002300087F68EB9EED1F0BC01F0FF0102F00702A3
:1002400032B110F8013B013A83EA010313B1F8D14E
:100250000020704701387047002D06BF354603382F
:10026000073815F0010F07D1013015F4807F02BF68
:10027000013015F4C03F0130F0BC0138704700BFB9
:10028000034613F8012B002AFBD1181A01387047D6
:1002900081F0004102E000BF83F0004330B54FEA37
:1002A00041044FEA430594EA050F08BF90EA020FA4
:1002B0001FBF54EA000C55EA020C7FEA645C7FEA37
:1002C000655C00F0E2804FEA5454D4EB5555B8BF5A
:1002D0006D420CDD2C4480EA020281EA030382EACB
:1002E000000083EA010180EA020281EA0303362D5D
:1002F00088BF30BD11F0004F4FEA01314FF4801C30
:100300004CEA113102D0404261EB410113F0004F41
:100310004FEA03334CEA133302D0524263EB4303F8
:1003200094EA050F00F0A780A4F10104D5F1200E96
:100330000DDB02FA0EFC22FA05F2801841F10001F1
:1003400003FA0EF2801843FA05F359410EE0A5F1C5
:1003500020050EF1200E012A03FA0EFC28BF4CF0F6
:10036000020C43FA05F3C01851EBE37101F00045AC
:1003700007D54FF0000EDCF1000C7EEB00006EEBB9
:100380000101B1F5801F1BD3B1F5001F0CD3490843
:100390005FEA30004FEA3C0C04F101044FEA44529A
:1003A00012F5800F80F09A80BCF1004F08BF5FEA21
:1003B000500C50F1000041EB045141EA050130BD01
:1003C0005FEA4C0C404141EB0101013C28BFB1F513
:1003D000801FE9D291F0000F04BF01460020B1FA5E
:1003E00081F308BF2033A3F10B03B3F120020CDA31
:1003F0000C3208DD02F1140CC2F10C0201FA0CF00F
:1004000021FA02F10CE002F11402D8BFC2F1200C73
:1004100001FA02F120FA0CFCDCBF41EA0C01904029
:10042000E41AA2BF01EB0451294330BD6FEA040472
:100430001F3C1CDA0C340EDC04F11404C4F120025D
:1004400020FA04F001FA02F340EA030021FA04F36F
:1004500045EA030130BDC4F10C04C4F1200220FAC6
:1004600002F001FA04F340EA0300294630BD21FA04
:1004700004F0294630BD94F0000F83F4801306BFCA
:1004800081F480110134013D4EE77FEA645C18BFBE
:100490007FEA655C29D094EA050F08BF90EA020F55
:1004A00005D054EA000C04BF1946104630BD91EA4D
:1004B000030F1EBF0021002030BD5FEA545C05D150
:1004C0004000494128BF41F0004130BD14F580048F
:1004D0003CBF01F5801130BD01F0004545F0FE4103
:1004E00041F470014FF0000030BD7FEA645C1ABF38
:1004F000194610467FEA655C1CBF0B46024650EA6F
:10050000013406BF52EA033591EA030F41F400219A
:1005100030BD00BF90F0000F04BF0021704730B520
:100520004FF4806404F132044FF000054FF00001F5
:1005300050E700BF90F0000F04BF0021704730B5B6
:100540004FF4806404F1320410F0004548BF40428B
:100550004FF000013EE700BF42004FEAE2014FEAE0
:1005600031014FEA02701FBF12F07F4393F07F4FBB
:1005700081F06051704732F07F4208BF704793F0BE
:100580007F4F04BF41F40021704730B54FF46074D1
:1005900001F0004521F000411CE700BF50EA0102D4
:1005A00008BF704730B54FF000050AE050EA01027D
:1005B00008BF704730B511F0004502D5404261EBED
:1005C00041014FF4806404F132045FEA915C3FF42E
:1005D000D8AE4FF003025FEADC0C18BF03325FEACB
:1005E000DC0C18BF033202EBDC02C2F1200300FA7C
:1005F00003FC20FA02F001FA03FE40EA0E0021FAA1
:1006000002F11444BDE600BF70B54FF0FF0C4CF48E
:10061000E06C1CEA11541DBF1CEA135594EA0C0F40
:1006200095EA0C0F00F0DEF82C4481EA030621EA7B
:100630004C5123EA4C5350EA013518BF52EA0335B6
:1006400041F4801143F4801338D0A0FB02CE4FF068
:100650000005E1FB02E506F00042E0FB03E54FF098
:100660000006E1FB03569CF0000F18BF4EF0010E90
:10067000A4F1FF04B6F5007F64F5407404D25FEA8C
:100680004E0E6D4146EB060642EAC62141EA55513F
:100690004FEAC52040EA5E504FEACE2EB4F1FD0C81
:1006A00088BFBCF5E06F1ED8BEF1004F08BF5FEAFF
:1006B000500E50F1000041EB045170BD06F00046B1
:1006C00046EA010140EA020081EA0301B4EB5C045E
:1006D000C2BFD4EB0C0541EA045170BD41F4801156
:1006E0004FF0000E013C00F3AB8014F1360FDEBF7B
:1006F000002001F0004170BDC4F10004203C35DA57
:100700000C341BDC04F11404C4F1200500FA05F3D9
:1007100020FA04F001FA05F240EA020001F000427A
:1007200021F0004110EBD37021FA04F642EB0601F0
:100730005EEA430E08BF20EAD37070BDC4F10C041A
:10074000C4F1200500FA04F320FA05F001FA04F2DE
:1007500040EA020001F0004110EBD37041F10001CA
:100760005EEA430E08BF20EAD37070BDC4F12005D5
:1007700000FA05F24EEA020E20FA04F301FA05F23D
:1007800043EA020321FA04F001F0004121FA04F2E5
:1007900020EA020000EBD3705EEA430E08BF20EAB5
:1007A000D37070BD94F0000F0FD101F000464000EF
:1007B00041EB010111F4801F08BF013CF7D041EA71
:1007C000060195F0000F18BF704703F00046520075
:1007D00043EB030313F4801F08BF013DF7D043EA46
:1007E0000603704794EA0C0F0CEA135518BF95EAFC
:1007F0000C0F0CD050EA410618BF52EA4306D1D183
:1008000081EA030101F000414FF0000070BD50EAA1
:10081000410606BF1046194652EA430619D094EA2B
:100820000C0F02D150EA013613D195EA0C0F05D115
:1008300052EA03361CBF104619460AD181EA030169
:1008400001F0004141F0FE4141F470014FF0000021
:1008500070BD41F0FE4141F4780170BD70B54FF0BC
:10086000FF0C4CF4E06C1CEA11541DBF1CEA13553C
:1008700094EA0C0F95EA0C0F00F0A7F8A4EB05041E
:1008800081EA030E52EA03354FEA013100F0888015
:100890004FEA03334FF0805545EA131343EA1263DE
:1008A0004FEA022245EA111545EA10654FEA002693
:1008B0000EF000419D4208BF964244F1FD0404F54C
:1008C000407402D25B084FEA3202B61A65EB0305A8
:1008D0005B084FEA32024FF480104FF4002CB6EB65
:1008E000020E75EB030E22BFB61A754640EA0C00E5
:1008F0005B084FEA3202B6EB020E75EB030E22BF25
:10090000B61A754640EA5C005B084FEA3202B6EB65
:10091000020E75EB030E22BFB61A754640EA9C0024
:100920005B084FEA3202B6EB020E75EB030E22BFF4
:10093000B61A754640EADC0055EA060E18D04FEAB2
:10094000051545EA16754FEA06164FEAC30343EA52
:1009500052734FEAC2025FEA1C1CC0D111F4801F1F
:100960000BD141EA00014FF000004FF0004CB6E718
:1009700011F4801F04BF01430020B4F1FD0C88BFB7
:10098000BCF5E06F3FF6AFAEB5EB030C04BFB6EBC2
:10099000020C5FEA500C50F1000041EB045170BDB5
:1009A0000EF0004E4EEA113114EB5C04C2BFD4EBE2
:1009B0000C0541EA045170BD41F480114FF0000E66
:1009C000013C90E645EA060E8DE60CEA135594EAE2
:1009D0000C0F08BF95EA0C0F3FF43BAF94EA0C0FE5
:1009E0000AD150EA01347FF434AF95EA0C0F7FF45A
:1009F00025AF104619462CE795EA0C0F06D152EAAE
:100A000003353FF4FDAE1046194622E750EA410691
:100A100018BF52EA43067FF4C5AE50EA41047FF4A2
:100A20000DAF52EA43057FF4EBAE12E74FF0FF3C07
:100A300006E000BF4FF0010C02E000BF4FF0010CD8
:100A40004DF804CD4FEA410C7FEA6C5C4FEA430C51
:100A500018BF7FEA6C5C1BD001B050EA410C0CBFA0
:100A600052EA430C91EA030F02BF90EA020F002002
:100A7000704710F1000F91EA030F58BF994208BF69
:100A800090422CBFD8176FEAE37040F00100704726
:100A90004FEA410C7FEA6C5C02D150EA013C07D17D
:100AA0004FEA430C7FEA6C5CD6D152EA033CD3D0C8
:100AB0005DF8040B704700BF8446104662468C46C2
:100AC0001946634600E000BF01B5FFF7B7FF0028F5
:100AD00048BF10F1000F01BD4DF808EDFFF7F4FF1E
:100AE0000CBF012000205DF808FB00BF4DF808EDA9
:100AF000FFF7EAFF34BF012000205DF808FB00BFCC
:100B00004DF808EDFFF7E0FF94BF012000205DF8ED
:100B100008FB00BF4DF808EDFFF7CEFF94BF0120A2
:100B200000205DF808FB00BF4DF808EDFFF7C4FF9B
:100B300034BF012000205DF808FB00BF4FEA410CE4
:100B40007FEA6C5C02D150EA013C0AD14FEA430CC7
:100B50007FEA6C5C02D152EA033C02D14FF0000004
:100B600070474FF0010070474FEA410212F5001242
:100B700015D211D56FF47873B3EB625212D94FEAE4
:100B8000C12343F0004343EA505311F0004F23FACE
:100B900002F018BF404270474FF00000704750EA23
:100BA000013005D111F0004008BF6FF000407047E0
:100BB0004FF00000704700BF4A0011D212F500123A
:100BC00011D20DD56FF47873B3EB62520ED44FEAA5
:100BD000C12343F0004343EA505323FA02F0704725
:100BE0004FF00000704750EA013002D14FF0FF3063
:100BF00070474FF0000070474FEA4102B2F1E04306
:100C000024BFB3F5001CDCF1FE5C0DD901F0004CF3
:100C10004FEAC0024CEA5070B2F1004F40EB830043
:100C200008BF20F00100704711F0804F21D113F16F
:100C30003872BCBF01F00040704741F480114FEAA8
:100C40005252C2F11802C2F1200C10FA0CF320FA31
:100C500002F018BF40F001004FEAC1234FEAD3234E
:100C600003FA0CFC40EA0C0023FA02F34FEA4303B8
:100C7000CCE77FEA625307D150EA01331EBF4FF041
:100C8000FE4040F44000704701F0004040F0FE405C
:100C900040F40000704700BF53B94AB9002908BFAB
:100CA00000281CBF4FF0FF314FF0FF3000F0BEB9FD
:100CB000ADF1080C6DE904CE00F03CF8DDF804E07D
:100CC000DDE9022304B0704738B500220023044652
:100CD0000D46FFF70BFF28B920462946BDE83840EE
:100CE00000F00AB8204605F1004100F005F8404246
:100CF00061EB410138BD00BFD0B50C4B0022064668
:100D00000F46FFF781FCFFF757FF0446FFF702FC91
:100D1000074B0022FFF778FC02460B463046394667
:100D2000FFF7BAFAFFF748FF2146D0BD0000F03DBB
:100D30000000F0412DE9F047089D8E4604468846A4
:100D4000002B4AD18A42174662D9B2FA82F64EB1D6
:100D5000C6F1200301FA06F820FA03F3B74043EA8C
:100D60000808B4404FEA174E1FFA87FCB8FBFEF1A3
:100D7000230C0EFB118843EA084301FB0CF29A4254
:100D800009D9FB1801F1FF3080F0EA809A4240F265
:100D9000E78002393B449A1AA3B2B2FBFEF00EFB85
:100DA000102243EA024300FB0CFC9C4509D9FB18C6
:100DB00000F1FF3280F0D6809C4540F2D3803B4466
:100DC000023840EA0140A3EB0C0300211DB1F340BF
:100DD0000022C5E90032BDE8F0878B4205D90DB18C
:100DE000C5E9000100210846F5E7B3FA83F10029BF
:100DF00046D1734502D3824200F20581841A6EEB1C
:100E0000030201209046002DE5D0C5E90048E2E745
:100E1000002A00F09080B2FA82F6002E40F0A48002
:100E20008A1A030C4FEA174E80B2BCB20121B2FB02
:100E3000FEFC0EFB1C2243EA024304FB0CF29A4226
:100E400007D9FB180CF1FF3802D29A4200F2E08079
:100E5000C4469B1AB3FBFEF20EFB123340EA034377
:100E600002FB04F49C4207D9FB1802F1FF3002D2C6
:100E70009C4200F2CA8002461B1B42EA0C40A5E7D6
:100E8000C1F120068B4022FA06F71F430EFA01F447
:100E900020FA06F32EFA06FE4FEA1749234300FA1A
:100EA00001F81FFA87FCBEFBF9F01C0C09FB10EEE1
:100EB00044EA0E4400FB0CFEA64502FA01F209D9F1
:100EC0003C1900F1FF3A80F09C80A64540F29980E1
:100ED00002383C44A4EB0E041FFA83FEB4FBF9F382
:100EE00009FB13444EEA044403FB0CFCA44508D957
:100EF0003C1903F1FF3E80F08280A4457FD9023B7C
:100F00003C4443EA0040A4EB0C04A0FB02EC644523
:100F10007346E14662D35FD05DB1B8EB030264EB88
:100F2000090404FA06F622FA01F31E43CC40C5E98F
:100F3000006400214FE7B1FBF2FC010C41EA0E41D5
:100F400080B240EA01423B4638463C46B846BE467F
:100F50002026B1FBF7F1A2EB080241EA0C4166E75B
:100F6000014618E710462CE7C6F120022EFA02F3DC
:100F7000B740B14020FA02F24FEA174E0A43B3FBE2
:100F8000FEF8BCB20EFB1833110C41EA034108FB1A
:100F900004F9B04089454FEA104380B23ED9791830
:100FA00008F1FF3C01D289451FD8A1EB0901B1FB33
:100FB000FEF909FB04F80EFB191192B242EA014254
:100FC000424529D2BA1809F1FF31C4D24245C2D2F2
:100FD000A9F102013A44BEE7F0459DD2BEEB0203FF
:100FE0006CEB070C0138E14696E7A7EB0909494489
:100FF000A8F1020CB1FBFEF909FB04F8DBE773462C
:101000007FE7504666E70846FDE63B44023A33E791
:10101000ACF1020C3B441CE749469CE7A1EB0901FB
:10102000C446B1FBFEF909FB04F8C4E7704700BFF2
:1010300080B586B002AF03463960FB71FB7963F07F
:101040007F03DBB23B733B68DBB27B7307F10C02BF
:101050004FF0FF33009302235221034803F0EAFDCF
:1010600000BF1037BD4680BDC802002080B586B0E5
:1010700002AF0346FB71FB7963F07F03DBB2FB73C6
:1010800007F10F024FF0FF3300930123522109486B
:1010900003F0D0FD07F10F024FF0FF33009301235F
:1010A0005221044803F0C4FEFB7B18461037BD46AE
:1010B00080BD00BFC802002080B586B002AF0346E5
:1010C000FB71FB7963F07F03DBB23B7307F10C022A
:1010D0004FF0FF330093012352210E4803F0AAFD85
:1010E00007F10C024FF0FF3300930223522109480D
:1010F00003F09EFE7B7BFB81FB891B02FB813B7B1C
:101100001A46FB891343FB81FB8918461037BD46FD
:1011100080BD00BFC802002080B500AF03F060F9B9
:1011200003469AB2014B1A8000BF80BD64020020C2
:1011300080B500AF0B4B1B88002B0DD003F050F98E
:1011400003469BB21A46084B1B88D31A054A1288DD
:10115000934201DD012300E0002303F00103DBB231
:10116000184680BD600200206402002080B586B071
:1011700004AF03460A46FB711346BB710C4ABB79A8
:1011800013700C4B1B781946FB799AB264230293B7
:1011900001230193064B00930123074804F07AF8DA
:1011A00003461A46054B1A7000BF0837BD4680BD7E
:1011B000C0020020000000206C020020C4020020B9
:1011C00080B586B004AF03460A46FB711346BB8068
:1011D000BB881B0A9BB2DAB20E4B1A70BB88DAB21C
:1011E0000C4B5A700C4B1B781946FB799AB264234E
:1011F000029302230193074B00930123074804F055
:1012000049F803461A46064B1A7000BF0837BD4618
:1012100080BD00BFC0020020000000206C02002042
:10122000C402002080B586B004AF03463960FB716C
:101230003B681B0EDAB2134B1A703B681B0CDAB218
:10124000104B5A703B681B0ADAB20E4B9A703B681F
:10125000DAB20C4BDA700C4B1B781946FB799AB258
:101260006423029304230193064B00930123074850
:1012700004F010F803461A46054B1A7000BF0837F1
:10128000BD4680BDC0020020000000206C0200208E
:10129000C402002080B588B004AF0346FB710E4B3A
:1012A0001B7843F00103DBB21946FB799AB2642341
:1012B00002930123019307F10F03009301230748D1
:1012C00004F0E2F803461A46054B1A70FB7B1846F9
:1012D0001037BD4680BD00BF000000206C0200201A
:1012E000C402002080B588B004AF0346FB71124BE6
:1012F0001B7843F00103DBB21946FB799AB26423F1
:1013000002930223019307F10C03009301230B487E
:1013100004F0BAF803461A46094B1A703B7B1BB21D
:101320001B021AB27B7B1BB213431BB2FB81FB89EE
:1013300018461037BD4680BD000000206C0200201A
:10134000C402002080B586B004AF03463960FB714B
:101350001346BB710C4B1B781846FB799AB2BB79CC
:101360009BB26421029101933B68009301230146E3
:10137000064803F08FFF03461A46054B1A7000BF5C
:101380000837BD4680BD00BF000000206C02002071
:10139000C402002080B586B004AF03463960FB71FB
:1013A0001346BB710D4B1B7843F00103DBB21846AB
:1013B000FB799AB2BB799BB26421029101933B689D
:1013C000009301230146064804F05EF803461A46DE
:1013D000044B1A7000BF0837BD4680BD00000020D6
:1013E0006C020020C402002080B586B000AF034626
:1013F0003960FB713B68002B01D1002353E254227A
:101400003968534807F0D5FE04220021514807F0FF
:101410003DFEFB79002B0AD08920FFF73BFF0346F6
:1014200043F00103DBB219468920FFF79FFE00213C
:101430008820FFF79BFE01218020FFF797FE012106
:10144000FF20FFF793FE00210020FFF78FFE912081
:10145000FFF720FF03461A463F4B1A700121002078
:10146000FFF784FE0021FF20FFF780FE002180208F
:10147000FFF77CFE6020FFF70DFF034643F01203E9
:10148000DBB219466020FFF771FEB5EE000A00F0EE
:1014900013FAFF210120FFF769FE07F1130207F19C
:1014A00014031146184600F031FC034683F0010393
:1014B000DBB2002B01D00023F5E107F10C0306227B
:1014C0001946B020FFF766FF0121FF20FFF74EFE0F
:1014D00000214F20FFF74AFE2C214E20FFF746FE49
:1014E0000021FF20FFF742FEB421B620FFF73EFEA9
:1014F000FB7C002B01D00C2300E000237B75002334
:10150000FB750023BB7540E0BA7D7B7D9A4203D317
:101510003B7DFA7D9A4221D1BB7DDB08D8B20346E0
:1015200018333B4413F80C3C5AB2BB7D03F007035D
:10153000012101FA03F35BB2DB435BB213405AB201
:101540000346D2B218333B4403F80C2C1AE000BF18
:101550006C020020C002002066020020BB7DDB0878
:10156000DBB218333B4413F80C3C1A46BB7D03F046
:10157000070342FA03F303F00103002B02D0FB7DC3
:101580000133FB75BB7D0133BB75BB7D2F2BBBD9F5
:1015900007F10C0306221946B020FFF7D3FE012104
:1015A000FF20FFF7E3FD00210020FFF7DFFD002112
:1015B000FF20FFF7DBFD00210920FFF7D7FD002109
:1015C0001020FFF7D3FD00211120FFF7CFFD0121EF
:1015D0002420FFF7CBFDFF212520FFF7C7FD0021C9
:1015E0007520FFF7C3FD0121FF20FFF7BFFD2C2170
:1015F0004E20FFF7BBFD00214820FFF7B7FD20215B
:101600003020FFF7B3FD0021FF20FFF7AFFD0921D8
:101610003020FFF7ABFD00215420FFF7A7FD042188
:101620003120FFF7A3FD03213220FFF79FFD832127
:101630004020FFF79BFD25214620FFF797FD002165
:101640006020FFF793FD00212720FFF78FFD062183
:101650005020FFF78BFD00215120FFF787FD9621D9
:101660005220FFF783FD08215620FFF77FFD302130
:101670005720FFF77BFD00216120FFF777FD002158
:101680006220FFF773FD00216420FFF76FFD00214A
:101690006520FFF76BFDA0216620FFF767FD0121A4
:1016A000FF20FFF763FD32212220FFF75FFD1421A9
:1016B0004720FFF75BFDFF214920FFF757FD002181
:1016C0004A20FFF753FD0021FF20FFF74FFD0A21BD
:1016D0007A20FFF74BFD00217B20FFF747FD2121FA
:1016E0007820FFF743FD0121FF20FFF73FFD342164
:1016F0002320FFF73BFD00214220FFF737FDFF21AC
:101700004420FFF733FD26214520FFF72FFD05215B
:101710004620FFF72BFD40214020FFF727FD062143
:101720000E20FFF723FD1A212020FFF71FFD402187
:101730004320FFF71BFD0021FF20FFF717FD0321CA
:101740003420FFF713FD44213520FFF70FFD012161
:10175000FF20FFF70BFD04213120FFF707FD0921D2
:101760004B20FFF703FD05214C20FFF7FFFC042170
:101770004D20FFF7FBFC0021FF20FFF7F7FC0021C5
:101780004420FFF7F3FC20214520FFF7EFFC082160
:101790004720FFF7EBFC28214820FFF7E7FC00215A
:1017A0006720FFF7E3FC04217020FFF7DFFC012135
:1017B0007120FFF7DBFCFE217220FFF7D7FC002130
:1017C0007620FFF7D3FC00217720FFF7CFFC012123
:1017D000FF20FFF7CBFC01210D20FFF7C7FC002104
:1017E000FF20FFF7C3FC01218020FFF7BFFCF82199
:1017F0000120FFF7BBFC0121FF20FFF7B7FC01210F
:101800008E20FFF7B3FC01210020FFF7AFFC002181
:10181000FF20FFF7ABFC00218020FFF7A7FC04218D
:101820000A20FFF7A3FC8420FFF734FD034623F0D2
:101830001003DBB219468420FFF798FC01210B202E
:10184000FFF794FC00F006F90346194A1360E821FB
:101850000120FFF78BFC164B1B68184600F062F85E
:1018600001210120FFF782FC402000F0FBFB034632
:1018700083F00103DBB2002B01D0002313E002212F
:101880000120FFF773FC002000F0ECFB034683F01F
:101890000103DBB2002B01D0002304E0E82101208A
:1018A000FFF764FC012318461837BD4680BD00BF12
:1018B000680200200000000080B582B000AF87ED14
:1018C000010AD7ED017AF5EEC07AF1EE10FA0AD4EA
:1018D0007868FEF741FE11A3D3E90023FFF724F94E
:1018E0000346002B01D000230FE0D7ED017A9FEDD6
:1018F0000A7A67EE877AFCEEE77A17EE903A9BB2A7
:1019000019464420FFF75CFC012318460837BD4602
:1019100080BD00BFAFF3008000000043A4703D0A0B
:10192000D7FF7F4080B592B000AF78604FF4A563D9
:10193000A7F840304FF47073FB874FF42573BB87D3
:1019400040F24E237B8740F2B2233B874FF425734E
:10195000FB8640F22623BB8644F620633B637A680D
:101960003B6B9A4201D200236EE0B7F84020FB8F18
:1019700013447B6407F12403184600F04EFA07F184
:101980000C0207F124031146184600F078FA97F884
:101990002430002B05D0BA697B8F13447A6C134432
:1019A0007B6497F82630002B07D0BA693B8F13442D
:1019B0005B007A6C13447B6409E097F82530002BB8
:1019C00005D0BA69BB8F13447A6C13447B6497F8D3
:1019D0002730002B05D0FA69FB8E13447A6C134430
:1019E0007B6497F82830002B2DD0BB8E7A6C134483
:1019F0007B647A6C7B689A4201D9002324E07A6880
:101A00007B6CD31AFB62FB89DBB21946F86A00F0E3
:101A100003FB0346A7F8423097F82730002B05D088
:101A20007A8AB7F842301344A7F84230B7F8423008
:101A3000184600F09EFA034619467120FFF7C0FBD6
:101A4000034A7B681360012318464837BD4680BDB2
:101A50006802002080B58CB000AF40F276737B85C1
:101A60004FF470733B854FF42573FB8440F24E2393
:101A7000BB8440F2B2237B844FF425733B8440F255
:101A80002623FB837A8D3B8D1344FB6207F11803F9
:101A9000184600F0C2F93A4607F1180311461846F5
:101AA00000F0EDF93B7E002B05D0FA68BB8C1344A7
:101AB000FA6A1344FB62BB7E002B07D0FA687B8C6A
:101AC00013445B00FA6A1344FB6208E07B7E002B40
:101AD00005D0FA68FB8C1344FA6A1344FB62FB7E60
:101AE000002B05D03A693B8C1344FA6A1344FB621D
:101AF0003B7F002B05D07A69FB8B1344FA6A1344B1
:101B0000FB62044AFB6A1360FB6A18463037BD4625
:101B100080BD00BF6802002080B582B000AF0346E0
:101B2000FB71FB79002B08D15020FFF7B3FB034674
:101B30000133DBB25B00DBB20CE0FB79012B08D197
:101B40007020FFF7A7FB03460133DBB25B00DBB27B
:101B500000E0FF2318460837BD4680BD80B584B03D
:101B600000AF786001218020FFF700FB0121FF20FA
:101B7000FFF7FCFA00210020FFF7F8FA194B1B7859
:101B800019469120FFF7F2FA01210020FFF7EEFA43
:101B90000021FF20FFF7EAFA00218020FFF7E6FA94
:101BA0007B68002B15D0F820FFF79CFB0346FB81D8
:101BB000FB89002B04D0FA897B6802FB03F37B606E
:101BC00079680420FFF72EFB04210020FFF7CEFAEE
:101BD00003E002210020FFF7C9FA00BF1037BD461D
:101BE00080BD00BF6602002080B586B000AF78607F
:101BF000FFF792FA12E0FFF79BFA0346002B0DD095
:101C0000304B01221A707B68002B04D00A22FF217E
:101C1000786807F03BFA4FF6FF734EE01320FFF7AA
:101C200039FB034603F00703002BE4D07B68002B4D
:101C300005D11E20FFF756FB0346FB8238E007F173
:101C400008030C2219461420FFF7A4FB3B7ADB089B
:101C5000DAB27B681A72BB7A1BB21B021AB2FB7A29
:101C60001BB213431BB29AB27B68DA80BB7B1BB2F8
:101C70001B021AB2FB7B1BB213431BB29AB27B68E6
:101C80005A803B7C1BB21B021AB27B7C1BB21343F3
:101C90001BB29AB27B689A80BB7C1BB21B021AB241
:101CA000FB7C1BB213431BB2FB827B68FA8A1A804F
:101CB00001210B20FFF75AFAFB8A18461837BD4658
:101CC00080BD00BF6202002080B483B000AF064B2D
:101CD0001B78FB71044B00221A70FB7918460C37F5
:101CE000BD465DF8047B70476202002080B483B07B
:101CF00000AF0346FB80044AFB88138000BF0C370B
:101D0000BD465DF8047B70476002002080B584B05A
:101D100000AF7860396001218020FFF727FA0121A8
:101D2000FF20FFF723FA00210020FFF71FFA06210A
:101D3000FF20FFF71BFA8320FFF7ACFA034643F0BE
:101D40000403DBB219468320FFF710FA0721FF20B6
:101D5000FFF70CFA01218120FFF708FA012180200A
:101D6000FFF704FA6B219420FFF700FA002183208B
:101D7000FFF7FCF9FFF7D0F906E0FFF7D9F90346C2
:101D8000002B01D0002344E08320FFF783FA0346B1
:101D9000002BF2D001218320FFF7E8F99220FFF712
:101DA00079FA0346FB73FB7B03F07F03DAB27B68AF
:101DB0001A70FB7BDB09DBB203F00103002B14BFBD
:101DC00001230023DAB23B681A7000218120FFF75B
:101DD000CDF90621FF20FFF7C9F98320FFF75AFA52
:101DE000034623F00403DBB219468320FFF7BEF954
:101DF0000121FF20FFF7BAF901210020FFF7B6F912
:101E00000021FF20FFF7B2F900218020FFF7AEF993
:101E1000012318461037BD4680BD80B584B000AFA1
:101E200078600120FFF736FA0346FB73FB7B1B0942
:101E3000DBB203F00103DAB27B681A70FB7BDB08CC
:101E4000DBB203F00103DAB27B689A70FB7B9B087C
:101E5000DBB203F00103DAB27B685A70FB7B9B09AB
:101E6000DBB203F00103DAB27B68DA70FB7BDB09DB
:101E7000DAB27B681A7100BF1037BD4680BD80B5ED
:101E800082B000AF786039600020FFF745FE03465E
:101E90001A463B681A804620FFF7FCF903460133D7
:101EA0009AB23B689A803B689A883B681B88DBB291
:101EB0001946104600F088F802463B68DA60512067
:101EC000FFF710FA0346184600F03EF803461A469C
:101ED0003B68DA803B68DA883B681B88DBB21946CE
:101EE000104600F071F802463B681A610120FFF7C6
:101EF00013FE03461A463B685A807120FFF7F2F939
:101F00000346184600F020F803461A463B681A813B
:101F10007B68DB78002B07D03B681A893B68DB883D
:101F2000D31A9AB23B681A813B681A893B685B886E
:101F3000DBB21946104600F047F802463B685A618A
:101F400000BF0837BD4680BD80B483B000AF0346F4
:101F5000FB80FB88DBB2FA88120A92B2D2B29340BD
:101F60009BB201339BB218460C37BD465DF8047B2B
:101F7000704780B485B000AF0346FB800023FB6050
:101F800000237B81FB88002B16D0FB88013BFB6084
:101F900005E0FB685B08FB607B8901337B81FB68A4
:101FA000FF2BF6D87B891B029AB2FB689BB2DBB28F
:101FB0009BB213439BB200E0002318461437BD4682
:101FC0005DF8047B7047000080B485B000AF034625
:101FD0000A46FB8013467B717B790D4A02FB03F3B3
:101FE00003F5FA730B4AA2FB03239B09FB60FB88F2
:101FF000FA6803FB02F2FB685B081344054AA2FB84
:1020000003239B0918461437BD465DF8047B7047CF
:10201000002F3A00D34D621080B485B000AF7860D5
:102020000B46FB70FB780D4A02FB03F303F5FA73D2
:102030000B4AA2FB03239B09FB607B684FF47A7277
:1020400003FB02F2FB685B081A44FB68B2FBF3F384
:1020500018461437BD465DF8047B7047002F3A00E0
:10206000D34D621080B582B000AF0346FB71FB799F
:1020700043F00103DBB219460020FFF777F8FFF7C2
:102080004BF806E0FFF754F80346002B01D000237D
:1020900010E01320FFF7FEF8034603F00703002BC0
:1020A000F0D001210B20FFF761F800210020FFF79D
:1020B0005DF8012318460837BD4680BD80B582B063
:1020C00000AF786027227968064806F0E7FF054BE5
:1020D000002283F82720044B01221A7000BF083722
:1020E000BD4680BD100000203800002080B58CB0B7
:1020F00002AF03460A46FB711346BB71BB7987F8F2
:102100002630002387F82730FB79012B12D1234B8F
:102110001B78BA799A4222D097F826301A460121C4
:102120001F4802F00FFC1D4ABB791370012387F88A
:10213000273014E0FB79022B11D11A4B1B78BA79A6
:102140009A420CD097F826301A460221144802F021
:10215000F9FB144ABB791370012387F8273097F8ED
:102160002730002B16D0FA79BB79002B01D00E4B0B
:1021700000E00E4B07F10800009313460C4A1E21A5
:1021800006F054FE07F108031846FFF797FF094BC6
:1021900001221A7000BF2837BD4680BD12040020FE
:1021A000000802401304002060C7000864C700084C
:1021B00068C700083900002080B582B000AF034630
:1021C000FB71FB79012B11D1144B1B78002B14BF31
:1021D00001230023DBB283F00103DBB203F0010330
:1021E000DBB219460120FFF781FF13E0FB79022BD8
:1021F00010D10B4B1B78002B14BF01230023DBB243
:1022000083F00103DBB203F00103DBB219460220C5
:10221000FFF76CFF00BF0837BD4680BD12040020E9
:102220001304002080B483B000AF0346FB800B464C
:10223000BB8013467B80FB88112B07D8BB88112BF2
:1022400004D87B88112B01D8002383E0BB88142B92
:102250002DD9BB8807EE903AB8EEE77AFB8807EEF7
:10226000903AF8EEE77ADFED3E6A67EEA67AB4EED2
:10227000E77AF1EE10FA1ADDBB8807EE903AB8EE75
:10228000E77A7B8807EE903AF8EEE77ADFED346A7A
:1022900067EEA67AB4EEE77AF1EE10FA07DDFB8876
:1022A000452B04D87B88452B01D8022352E0FB88BC
:1022B000142B2DD9FB8807EE903AB8EEE77ABB884D
:1022C00007EE903AF8EEE77ADFED256A67EEA67A38
:1022D000B4EEE77AF1EE10FA1ADDFB8807EE903AD9
:1022E000B8EEE77A7B8807EE903AF8EEE77ADFED12
:1022F0001C6A67EEA67AB4EEE77AF1EE10FA07DD13
:10230000BB883B2B04D87B883B2B01D8012321E0E1
:10231000FB88502B1DD9BB88502B1AD97B88452BA5
:1023200017D8FA88BB88134407EE903AB8EEE77ADC
:102330007B885B0007EE903AF8EEE77ADFED086AFB
:1023400067EEA67AB4EEE77AF1EE10FA01DD032328
:1023500000E0002318460C37BD465DF8047B70474B
:102360006666A63F80B483B000AF0346FB71FB797D
:10237000032B0AD0032B0ADC012B02D0022B02D044
:1023800005E0064B04E0064B02E0064B00E0064B7E
:1023900018460C37BD465DF8047B704778C70008C7
:1023A0007CC7000884C700088CC7000880B483B0CD
:1023B00000AF0346FB71FB79002B01D1044B00E019
:1023C000044B18460C37BD465DF8047B704700BFD0
:1023D00098C70008A0C7000880B58EB000AF4F486E
:1023E000FFF76CFE4E4B01221A7000210120FFF70F
:1023F0007DFE00210220FFF779FE4A48FFF75EFECE
:10240000322001F0F9FF01F001FB002001F09EFBFA
:102410004548FFF753FE322001F0EEFF4348FFF737
:102420004DFE0A2001F0E8FF41490120FEF7DCFFE4
:102430000346002B0DD04FF4FA70FFF757FC002035
:10244000FFF78CFB3B4B01221A703B48FFF736FE2F
:1024500005E0384B00221A703848FFF72FFE642041
:1024600001F0CAFF3648FFF729FE0A2001F0C4FF39
:102470001220FEF7FBFD034687F8373097F8373018
:10248000442B03D097F837304D2B25D197F83730B0
:1024900007F11C002B4A192106F0C8FC07F11C03A8
:1024A0001846FFF70BFE01210020FEF7C1FD264B69
:1024B00000221A70052001F09FFFF6210120FEF78F
:1024C000B7FD00210F20FEF7B3FD204B01221A704B
:1024D0001F48FFF7F3FD0DE097F8373038461D4AE7
:1024E000192106F0A3FC3B461846FFF7E7FD174B02
:1024F00000221A70642001F07FFF174B00221A702F
:10250000164B00221A701648FFF7D8FD044B012223
:102510001A7000BF3837BD4680BD00BF1CC8000818
:10252000390000202CC800083CC8000848C8000832
:102530001C0300201F04002058C8000868C80008B9
:1025400078C800088CC80008160400201504002074
:10255000A0C80008B0C80008110400201004002022
:10256000C4C8000880B584B000AF914B1B787B7362
:10257000904B1B78002B5BD03B461846FFF734FB93
:102580000346FB81FFF7A0FB03461A468A4B1A70ED
:10259000894B1B78002B09D1FB8941F6FF729342CE
:1025A00004D0FB894FF6FF72934206D1834B4FF65E
:1025B000FF721A806523FB8102E0804AFB89138049
:1025C000FB89632B94BF012300233B733B7B002BD0
:1025D0000ED07B4B00221A707A4B1B780322934259
:1025E00014D2784B1B780133DAB2764B1A700DE0B7
:1025F000744B00221A70724B1B780322934205D24F
:102600006F4B1B780133DAB26D4B1A706D4B1B7830
:102610000322934203D3664B01221A700FE0684BEA
:102620001B78032293420AD3614B00221A7006E002
:102630005F4B00221A70614B4FF6FF721A80624B9B
:102640001B78DBB2002B40F09280594B1B78002B9B
:1026500024D07B7B83F00103DBB2002B1ED05B4BCD
:102660001B78002B4BD05A4B1B7883F00103DBB255
:10267000002B44D003210020FEF7DAFC544B01224A
:102680001A701E2001F0B8FE5248FFF717FD524B9A
:1026900001221A70514B01221A7030E0444B1B7812
:1026A00083F00103DBB2002B2AD07B7B002B27D0E9
:1026B000464B1B78002B0DD0454B1B78002B09D0C7
:1026C00001210020FEF7B4FC414B00221A7044485F
:1026D000FFF7F4FC434B00221A80424B1A88424B0E
:1026E0001A80414B1A88414B1A80414B00221A70C4
:1026F000394B00221A70394B01221A7000E000BFDA
:102700002B4B1B78002B4FD0304B1B78002B4BD022
:102710002F4B1B78002B47D02F4B1B78DBB2012BA4
:1027200004D02D4B1B78DBB2022B3DD11620FEF7D7
:10273000C3FC03461A462D4B1A801820FEF7BCFC3A
:1027400003461A46284B1A801A20FEF7B5FC0346AA
:102750001A46244B1A80204B1B78DBB2012B23D165
:102760001D4B02221A701D4B01221A701CE0174BE0
:102770001B78002B0DD0164B1B78002B09D00121A4
:102780000020FEF755FC124B00221A701948FFF783
:1027900095FC144B00221A80124B1A88124B1A8097
:1027A000114B1A88114B1A8000BF1037BD4680BDEF
:1027B000140400201F0400201E0400200C00002030
:1027C00035040020340400201104002015040020EA
:1027D00016040020D4C8000810040020390000208E
:1027E000E0C800081C0400201A040020180400207F
:1027F00020040020F0C8000880B584B000AF7860E5
:1028000001F0EEFDF8607B681A687B689B881946CA
:10281000104602F07FF80346002B0CBF0123002373
:10282000FB727B6800229A737B680022DA73FB7A62
:10283000002B14D07B681B7B83F00103DBB2002BE1
:102840000DD07B685B7B83F00103DBB2002B4CD0A7
:102850007B6801221A737B68FA689A6045E0FB7A0C
:1028600083F00103DBB2002B22D07B681B7B002BA3
:102870001ED07B689B68FA68D31A312B11D97B680C
:102880005B7B83F00103DBB2002B0AD07B689B6883
:10289000FA68D31A40F6B732934202D87B68012215
:1028A0009A737B6800221A737B6800225A731CE0BB
:1028B000FB7A002B19D07B681B7B002B15D07B6823
:1028C0005B7B83F00103DBB2002B0ED07B689B683F
:1028D000FA68D31A40F6B732934206D97B680122D0
:1028E000DA737B6801225A73FFE700BF1037BD46D9
:1028F00080BD000080B582B000AF9D4B1B78FB719E
:102900009C4B1B78BB719C48FFF776FF9B48FFF7F9
:1029100073FF9B48FFF770FF974B9B7B002B1AD0F0
:10292000944B1B78DBB2002B09D1924B01221A7019
:102930008F4B05221A709348FFF7C0FB08E08D4BC0
:1029400000221A708A4B00221A708F48FFF7B6FBDC
:102950008E4B01221A70874B1B78DBB2002B03D001
:10296000012B00F093804CE1814B1B78DBB2042BF0
:1029700061D801A252F823F07D2A00088D290008B1
:10298000A32900081B2A00081B2A0008804B1B787B
:1029900083F00103DBB2002B72D0754B00221A705A
:1029A0006EE07C4B1B887C4A11887C4A1288184652
:1029B000FFF738FC03461A46794B1A70784B1B78A0
:1029C000002B20D0764B1B78032B0DD0032B12DC71
:1029D000012B05D0022B0ED10120FFF7EDFB0EE0FD
:1029E0000220FFF7E9FB0AE00120FFF7E5FB0220E8
:1029F000FFF7E2FB03E06B48FFF760FB00BF5C4BB7
:102A000003221A7005E06848FFF758FB584B042270
:102A10001A705E4B01221A7037E05D4B1B7883F011
:102A20000103DBB2002B2DD0514B00221A70574B03
:102A300001221A7026E04E4B1B78DBB2002B23D00C
:102A40004B4B1B78DBB2012B1ED0494B1B78DBB202
:102A5000022B19D0464B1B78DBB2032B14D0444B0E
:102A60001B78DBB2042B0FD05048FFF727FB404BFD
:102A700000221A70454B01221A7005E000BFC0E029
:102A800000BFBEE000BFBCE000BFBAE0384B1B781F
:102A9000DBB2072B4FD0072B00F39280052B02D01F
:102AA000062B2CD08CE0354B1B7B002B10D0334BEE
:102AB0005B7B83F00103DBB2002B09D02C4B062299
:102AC0001A703B48FFF7FAFA304B01221A7090E077
:102AD0002B4B1B7B002B00F08C80294B5B7B83F006
:102AE0000103DBB2002B00F08480214B07221A7017
:102AF0003048FFF7E3FA254B01221A7079E01F4BAB
:102B0000DB7B002B06D00120FFF756FB184B05227C
:102B10001A7070E0194B1B7B83F00103DBB2002BB2
:102B200069D0134B05221A702348FFF7C7FA174BD9
:102B300001221A705FE0124BDB7B002B06D00220D3
:102B4000FFF73AFB0A4B05221A7056E00C4B1B7B31
:102B500083F00103DBB2002B4FD0054B05221A7026
:102B60001648FFF7ABFA094B01221A7045E000BF87
:102B700010040020110400203C0000204C00002024
:102B80005C00002008C9000818C9000839000020AE
:102B900014040020180400201A0400201C04002043
:102BA000200400202CC9000840C9000854C90008AE
:102BB00068C9000878C9000888C9000894C90008D5
:102BC000194B1B78DBB2052B19D0174B1B78DBB2E6
:102BD000062B14D0144B1B78DBB2072B0FD01348F5
:102BE000FFF76CFA104B05221A70114B01221A7074
:102BF00005E000BF04E000BF02E000BF00E000BF4E
:102C000000BF094B1B78DBB2FA799A4205D1094B18
:102C10001B78DBB2BA799A4202D0054B01221A70B6
:102C200000BF0837BD4680BD10040020A0C90008C1
:102C3000390000201104002080B592B004AFA74BEA
:102C40001B78DAB2A64B1B789A4203D1A54B1B78AE
:102C5000002B01D0012300E0002387F8353097F8DE
:102C6000353003F0010387F835309F4B1B78DAB21B
:102C70009E4B1B789A4203D19A4B1B78002B01D0B4
:102C8000012300E0002387F8343097F8343003F054
:102C9000010387F83430964B1A78964B1B789A428A
:102CA00009D1954B1A78954B1B789A4203D18D4BDD
:102CB0001B78002B01D0012300E0002387F833307C
:102CC00097F8333003F0010387F833308C4B1A88C0
:102CD0008C4B1B889A4209D18B4B1A788B4B1B78F3
:102CE0009A4203D17F4B1B78002B01D0012300E0D7
:102CF000002387F8323097F8323003F0010387F869
:102D00003230834B1A88834B1B889A420FD1824BF7
:102D10001A88824B1B889A4209D1814B1A88814BB1
:102D20001B889A4203D16F4B1B78002B01D00123E3
:102D300000E0002387F8313097F8313003F00103C9
:102D400087F83130784B1B78002B03D1654B1B780B
:102D5000002B01D0012300E0002387F8303097F8E2
:102D6000303003F0010387F8303097F8353083F0C6
:102D70000103DBB2002B23D097F8343083F001033A
:102D8000DBB2002B1CD097F8333083F00103DBB2A9
:102D9000002B15D097F8323083F00103DBB2002B03
:102DA0000ED097F8313083F00103DBB2002B07D04F
:102DB00097F8303083F00103DBB2002B40F0B18292
:102DC00097F83530002B03D197F83430002B2AD0F8
:102DD000424B1B78DBB21846FFF7E8FA0346384649
:102DE000524A2D2106F022F8514B5B7805339BB2F5
:102DF00000220092EF220521002000F0E3FE4C4B60
:102E00003946002202924FF6FF7201925A680092F0
:102E10001B680A460521052000F0A0FF2F4B1B78F8
:102E2000DAB22F4B1A7097F83430002B04D197F890
:102E30003530002B00F0DF803D4B5B78073399B2D3
:102E40003B4B5B785B009BB207339BB20022009246
:102E5000EF22002000F0B6FE4FF6FF73FB86224BF8
:102E60001B78DBB2072B00F2A68001A252F823F0F8
:102E7000912E0008B32E0008C72E0008492F000825
:102E8000672F00087B2F00088F2F0008A32F000852
:102E9000124B1B78DBB2002B01D1264B00E0264BF6
:102EA0003846264A2D2105F0C1FF4FF4FC63FB860E
:102EB0008BE03B46224A2D21184605F0B7FF4FF61E
:102EC000E073FB8681E03B461E4A2D21184605F043
:102ED000ADFF4FF6E073FB8677E000BF11040020E2
:102EE0006C00002039000020100400206D0000203C
:102EF00012040020360400201304002037040020B0
:102F00000C0000206E000020140400203804002073
:102F1000180400203A0400201A0400203C04002079
:102F20001C0400203E04002038000020B8C900081E
:102F300004000020C4C90008D8C90008E8C9000876
:102F4000ECC9000800CA0008934B1B781846FFF72D
:102F500009FA03463846914A2D2105F067FF47F6E6
:102F6000FF73FB8631E03B468D4A2D21184605F064
:102F70005DFF4FF47843FB8627E03B46894A2D21CD
:102F8000184605F053FF4FF6FF73FB861DE03B46E6
:102F9000854A2D21184605F049FF4FF6E073FB8660
:102FA00013E03B46814A2D21184605F03FFF4FF6BE
:102FB000E073FB8609E03B467D4A2D21184605F06B
:102FC00035FF4FF47843FB8600BF7A4B5B780733BD
:102FD00099B2784B384600220292FA8E01925A68D2
:102FE00000921B680246052000F0B8FE724B1B7869
:102FF000DAB2724B1A7097F83330002B44D0704B12
:103000001B78002B01D06F4A00E06F4A6F4B1B7892
:10301000002B01D06B4B00E06B4B384600931346FE
:103020006B4A2D2105F002FF624B5B785B009BB27F
:10303000093399B25F4B5B781A46520013449BB236
:1030400009339BB200220092EF22002000F0BAFD6B
:10305000584B5B785B009BB2093399B2554B3846AD
:10306000002202924FF6E07201925A6800921B68A9
:103070000246052000F072FE514B1A78554B1A702B
:10308000524B1A78544B1A7097F83230002B55D0A7
:10309000524B1B884FF6FF7293420CD1504B1B785A
:1030A000002B01D04F4B00E04F4B38464F4A2D21AB
:1030B00005F0BCFE10E0494B1B881A46484B1B78B4
:1030C000002B01D0474B00E0474B38460093134696
:1030D000474A2D2105F0AAFE364B5B781A4652006E
:1030E00013449BB20E3399B2324B5B789B009BB278
:1030F0000E339BB200220092EF22002000F062FD0E
:103100002C4B5B781A46520013449BB20E3399B293
:10311000284B3846002202924FF6FF7201925A68FD
:1031200000921B680246052000F018FE2B4B1A88FF
:10313000304B1A802A4B1A782F4B1A7097F831307F
:10314000002B0AD12D4B1B78DBB2012B40F09E8067
:1031500097F83530002B00F09980284B1B78DBB2B4
:10316000002B57D11E4B1B78002B53D0244B1B78C0
:10317000002B4FD0234B1B881946234B1B881A4624
:10318000224B1B883846019300920B46204A2D2182
:1031900005F04CFE44E000BF2004002014CA0008E3
:1031A00024CA000838CA00084CCA000860CA0008CF
:1031B00074CA000804000020100400206D000020E4
:1031C0001204002084CA000864C700081304002009
:1031D00088CA000836040020370400200C000020B4
:1031E0001404002098CA0008A0CA0008A8CA000851
:1031F000B8CA00086E000020380400201104002026
:1032000016040020180400201A0400201C040020CA
:10321000C8CA00083B46454A2D21184605F006FE5F
:10322000434B5B7804339BB29B0099B2404B5B7875
:1032300004339BB29B009BB23D4A527813449BB22D
:1032400000220092EF22002000F0BCFC384B5B789B
:1032500004339BB29B0099B2354B38460022029250
:103260004FF6FF7201925A6800921B6802460520D1
:1032700000F074FD2F4B1A882F4B1A802F4B1A88A1
:103280002F4B1A802F4B1A882F4B1A8097F830300B
:10329000002B42D0264B5B7804339BB29B009BB241
:1032A000234A527813449BB2053399B2204B5B7882
:1032B00004339BB29B009BB21D4A527813449BB2CD
:1032C0001B4A527813449BB205339BB200220092F2
:1032D000EF22002000F076FC154B5B7804339BB2A4
:1032E0009B009BB2124A527813449BB2053399B2A9
:1032F0000F4B0022029248F2304201925A6800922B
:103300001B68124A052000F029FD28220F491048A9
:1033100005F0C4FE0F4B00221A700F4B00221A70EA
:1033200000E000BF3837BD4680BD00BFE0CA0008DE
:1033300004000020180400203A0400201A04002091
:103340003C0400201C0400203E040020100000204B
:1033500040040020380000203900002080B582B0F1
:1033600000AF00F0D7FF00F057F800F087F900F049
:1033700051F900F0BDF800F0E9F800F015F9214826
:1033800005F098FCFFF728F801F02AF878601E4A4B
:103390007B6813601D4A7B6813601D4A7B6813605D
:1033A0001C4A7B68136001F01BF87860164B1B68A1
:1033B0007A68D31A312B04D9FFF7D4F8124A7B6804
:1033C0001360124B1B687A68D31A132B02D90F4A69
:1033D0007B6813600E4B1B687A68D31A312B04D9B3
:1033E000FFF788FA0A4A7B6813600A4B1B687A6801
:1033F000D31AC72B04D9FFF71FFC064A7B6813605A
:1034000000BFD0E7F8CA00082404002028040020E8
:103410002C0400203004002080B594B000AF07F1E8
:10342000200330220021184605F030FE07F10C037E
:1034300000221A605A609A60DA601A610023BB6049
:10344000294B1B6C284A43F080531364264B1B6C9A
:1034500003F08053BB60BB6800237B60234B1B6879
:1034600023F44043214A43F4004313601F4B1B687D
:1034700003F440437B607B6802233B620123FB62D1
:1034800010233B630223BB630023FB6310233B64D5
:103490004FF4A8737B640423BB640723FB6407F128
:1034A0002003184602F026FF0346002B01D000F04F
:1034B00089F90F23FB6002233B6100237B614FF4FA
:1034C0008053BB610023FB6107F10C030221184606
:1034D00003F088F90346002B01D000F073F900BF18
:1034E0005037BD4680BD00BF00380240007000402C
:1034F00080B500AF124B134A1A60114B124A5A6042
:103500000F4B00229A600E4B0022DA600C4B4FF4F6
:1035100080421A610A4B00225A61094B00229A61CB
:10352000074B0022DA61064B00221A62044801F0C0
:103530003DFA0346002B01D000F044F900BF80BDE6
:10354000C802002000540040A086010080B500AFF2
:10355000124B134A1A60114B124A5A600F4B002249
:103560009A600E4B0022DA600C4B4FF480421A61D5
:103570000A4B00225A61094B00229A61074B002234
:10358000DA61064B00221A62044801F00FFA034682
:10359000002B01D000F016F900BF80BD1C030020F5
:1035A000005C0040A086010080B500AF174B184AB0
:1035B0001A60164B4FF482725A60144B00229A60C4
:1035C000124B0022DA60114B00221A610F4B0022CD
:1035D0005A610E4B4FF400729A610C4B0822DA616B
:1035E0000A4B00221A62094B00225A62074B002242
:1035F0009A62064B0A22DA62044803F013FB034680
:10360000002B01D000F0DEF800BF80BD7003002069
:103610000038004080B500AF154B164A1A60144BB5
:103620004FF4E1325A60124B00229A60104B002294
:10363000DA600F4B00221A610D4B0C225A610C4BC1
:1036400000229A610A4B0022DA61094803F094FDD6
:103650000346002B01D000F0B5F8074B1B689868B3
:1036600000230222002105F02DFB00BF80BD00BF1A
:10367000C8030020004400408800002080B58AB0C4
:1036800000AF07F1140300221A605A609A60DA60F2
:103690001A6100233B613D4B1B6B3C4A43F0040322
:1036A00013633A4B1B6B03F004033B613B6900233C
:1036B000FB60364B1B6B354A43F080031363334B7F
:1036C0001B6B03F08003FB60FB680023BB602F4B88
:1036D0001B6B2E4A43F0010313632C4B1B6B03F04F
:1036E0000103BB60BB6800237B60284B1B6B274A30
:1036F00043F002031363254B1B6B03F002037B6053
:103700007B68002240F24311214801F01BF900229E
:103710002021204801F016F94FF400537B6100236B
:10372000BB610123FB6107F114031946184800F03F
:103730006DFF40F243137B610123BB610023FB61FA
:1037400000233B6207F114031946114800F05EFFA5
:1037500020237B610123BB610023FB6100233B62CB
:1037600007F1140319460B4800F050FF03237B6157
:103770000023BB610123FB6107F1140319460548CF
:1037800000F044FF00BF2837BD4680BD003802402E
:10379000000802400000024080B584B000AFF8602D
:1037A000B9607A607B689AB24FF0FF33B968044819
:1037B00003F032FD7B6818461037BD4680BD00BF60
:1037C000C803002080B500AF72B600BF0948FEF7FD
:1037D00075FC094805F06EFA01222021074801F026
:1037E000B1F82021054801F0C6F8642000F004FE7D
:1037F00000BFF6E710CB000828CB0008000002400D
:1038000080B582B000AF0346FB71002220210C4836
:1038100001F098F800224021094801F093F8F91DC1
:103820004FF0FF330122074803F085FA01222021DF
:10383000034801F087F800BF0837BD4680BD00BFD0
:10384000000802407003002080B584B000AF7860AB
:10385000396000222021154801F074F8012240212E
:10386000124801F06FF815E03B684FF6FF72934283
:1038700028BF1346FB81FA894FF0FF3379680C4863
:1038800003F059FAFB897A6813447B60FB893A6834
:10389000D31A3B603B68002BE6D10122202103486C
:1038A00001F050F800BF1037BD4680BD000802404F
:1038B0007003002080B582B000AF0346FB71002288
:1038C00020210C4801F03EF801224021094801F076
:1038D00039F8F91D4FF0FF330122074803F02BFAA6
:1038E00001222021034801F02DF800BF0837BD4612
:1038F00080BD00BF000802407003002080B582B088
:1039000000AF0346FB713620FFF77AFFFB79032BEC
:103910001AD801A252F823F02939000831390008D9
:103920003939000841390008C020FFF7C3FF0CE017
:10393000A020FFF7BFFF08E00020FFF7BBFF04E077
:103940006020FFF7B7FF00E000BF00BF0837BD46AB
:1039500080BD00BF90B587B000AF04460846114651
:103960001A462346FB800346BB800B467B801346EA
:103970003B8000222021244800F0E4FFFB88FB82EA
:103980007B88BB82BB887B823B883B822A20FFF7F7
:1039900037FFFB8A1B0A9BB2DBB23B73FB8ADBB2AD
:1039A0007B73BB8A1B0A9BB2DBB2BB73BB8ADBB2E5
:1039B000FB7307F10C0304211846FFF745FF2B208A
:1039C000FFF71EFF7B8A1B0A9BB2DBB23B727B8A2E
:1039D000DBB27B723B8A1B0A9BB2DBB2BB723B8AB7
:1039E000DBB2FB7207F1080304211846FFF72CFF36
:1039F0002C20FFF705FF01222021034800F0A2FF41
:103A000000BF1C37BD4690BD0008024090B58BB08A
:103A100000AF0A2000F0F0FC00224FF4807147480C
:103A200000F090FF0A2000F0E7FC01224FF48071C3
:103A3000424800F087FF142000F0DEFC3A20FFF738
:103A4000DFFE5520FFF736FFB220FFF7D9FE3C4AD4
:103A500007F1200392E8030018600433197007F19E
:103A6000200305211846FFF7EFFE0220FFF746FF6F
:103A7000B720FFF7C5FE3520FFF71CFFBB20FFF77F
:103A8000BFFE1920FFF716FFC020FFF7B9FE2C205C
:103A9000FFF710FFC220FFF7B3FE0120FFF70AFF78
:103AA000C320FFF7ADFE1220FFF704FFC420FFF78D
:103AB000A7FE2020FFF7FEFEC620FFF7A1FE0F2085
:103AC000FFF7F8FED020FFF79BFEA420FFF7F2FEE1
:103AD000A120FFF7EFFEE020FFF792FE194B07F160
:103AE00010040FCB07C4238007F110030E211846E2
:103AF000FFF7AAFEE120FFF783FE134B3C460FCBF6
:103B000007C423803B460E211846FFF79DFE212067
:103B1000FFF776FE1120FFF773FE1320FFF770FE0C
:103B20002920FFF76DFE322000F066FC002000F037
:103B30000DF800BF2C37BD4690BD00BF0008024005
:103B400058CB000860CB000870CB000880B584B06B
:103B500000AF0346FB80EF23EF2200210020FFF798
:103B6000F9FE00222021164800F0ECFE0023FB8124
:103B700019E00023BB8110E0FB881B0A9BB2DBB27B
:103B80003B72FB88DBB27B7207F108030221184607
:103B9000FFF75AFEBB890133BB81BB89EF2BEBD901
:103BA000FB890133FB81FB89EF2BE2D90122202124
:103BB000034800F0C7FE00BF1037BD4680BD00BF00
:103BC0000008024090B585B000AF04460846114693
:103BD0001A462346FB800346BB800B467B80134678
:103BE0003B807B88EF2B35D83B88EF2B32D80022E7
:103BF00020211A4800F0A6FE3B887A88B988F88808
:103C0000FFF7A8FEBB88FB811AE0FB88BB8110E0B0
:103C10003B8C1B0A9BB2DBB23B723B8CDBB27B72F0
:103C200007F1080302211846FFF70EFEBB89013396
:103C3000BB81BA897B889A42EAD9FB890133FB812F
:103C4000FA893B889A42E0D901222021034800F0FA
:103C500079FE00E000BF1437BD4690BD0008024069
:103C600082B080B588B000AFFB620346FB800B4694
:103C7000BB801346FB7000222021374800F062FE13
:103C800097F82C301A46FB8813449BB2013B9AB23A
:103C900097F82D301946BB880B449BB2013B9BB271
:103CA000B988F888FFF756FE0023FB6141E03A6BC4
:103CB000FB78203B97F82D1001FB03F31946FB69B5
:103CC0000B445B0013441B887B610023BB6127E02E
:103CD0007A69BB6902FA03F303F40043002B0ED0A8
:103CE000BB8E1B0A9BB2DBB23B74BB8EDBB27B7418
:103CF00007F1100302211846FFF7A6FD0DE03B8FE8
:103D00001B0A9BB2DBB23B733B8FDBB27B7307F1C9
:103D10000C0302211846FFF797FDBB690133BB6115
:103D200097F82C301A46BB699342D1D3FB69013313
:103D3000FB6197F82D301A46FB699342B7D30122F5
:103D40002021054800F0FEFD00BF2037BD46BDE83C
:103D5000804002B0704700BF0008024082B080B5CA
:103D600086B004AF3A607B610346FB800B46BB80A4
:103D700000222021214800F0E5FD2DE0FB883A7D5E
:103D80001344EF2B13DD0023FB807B7D1A46BB8899
:103D90001344BB80BB887A7D1344EF2B21DC3B6846
:103DA0001B78202B03D13B6801333B6014E03B6858
:103DB0001A78B988F8883B8C0293BB8B0193BB6956
:103DC00000937B69FFF74CFF3B7D1A46FB88134449
:103DD000FB803B6801333B603B681B78002BCDD1F7
:103DE00000E000BF01222021044800F0ABFD00BF2D
:103DF0000837BD46BDE8804002B070470008024069
:103E000080B582B000AF00237B60124B5B6C114A1F
:103E100043F4804353640F4B5B6C03F480437B603B
:103E20007B6800233B600B4B1B6C0A4A43F08053BA
:103E30001364084B1B6C03F080533B603B6800220B
:103E40000F216FF0010000F0B8FB00BF0837BD463E
:103E500080BD00BF0038024080B58CB000AF7860F4
:103E600007F11C0300221A605A609A60DA601A6136
:103E70007B681B68424A93422CD10023BB61414BB3
:103E80001B6B404A43F0020313633E4B1B6B03F072
:103E90000203BB61BB69C023FB6112233B620123A8
:103EA0007B620323BB620423FB6207F11C031946F8
:103EB000354800F0ABFB00237B61324B1B6C314A71
:103EC00043F4001313642F4B1B6C03F400137B614A
:103ED0007B6950E07B681B682C4A93424BD10023DE
:103EE0003B61284B1B6B274A43F004031363254BAC
:103EF0001B6B03F004033B613B690023FB60214B18
:103F00001B6B204A43F0010313631E4B1B6B03F032
:103F10000103FB60FB684FF40073FB6112233B62FB
:103F200001237B620323BB620423FB6207F11C03B2
:103F30001946174800F06AFB4FF48073FB611223A7
:103F40003B6201237B620323BB620423FB6207F114
:103F50001C0319460F4800F059FB0023BB60094BB6
:103F60001B6C084A43F400031364064B1B6C03F4F8
:103F70000003BB60BB6800BF3037BD4680BD00BFDB
:103F8000005400400038024000040240005C004041
:103F9000000802400000024080B58AB000AF78609F
:103FA00007F1140300221A605A609A60DA601A61FD
:103FB0007B681B68284A93424AD100233B61274B08
:103FC0001B6C264A43F480431364244B1B6C03F49C
:103FD00080433B613B690023FB60204B1B6B1F4A06
:103FE00043F0040313631D4B1B6B03F00403FB60DE
:103FF000FB680023BB60194B1B6B184A43F002039C
:104000001363164B1B6B03F00203BB60BB680C23EE
:104010007B610223BB610023FB6103233B62052319
:104020007B6207F1140319460D4800F0EFFA4FF4D4
:1040300080637B610223BB610023FB6103233B623E
:1040400005237B6207F114031946064800F0DEFAE7
:1040500000BF2837BD4680BD003800400038024010
:10406000000802400004024080B58AB000AF7860CA
:1040700007F1140300221A605A609A60DA601A612C
:104080007B681B68194A93422BD100233B61184B74
:104090001B6C174A43F400331364154B1B6C03F479
:1040A00000333B613B690023FB60114B1B6B104AE3
:1040B00043F0010313630E4B1B6B03F00103FB6022
:1040C000FB680C237B610223BB610023FB6100239F
:1040D0003B6207237B6207F114031946054800F091
:1040E00095FA00BF2837BD4680BD00BF00440040A0
:1040F000003802400000024080B400AF00BFFDE77E
:1041000080B400AF00BFFDE780B400AF00BFFDE7A3
:1041100080B400AF00BFFDE780B400AF00BFFDE793
:1041200080B400AF00BFBD465DF8047B704780B52A
:1041300000AF00F041F903F0B1FD0346012B01D0BF
:1041400003F01AFE00BF80BD80B400AF0123184603
:10415000BD465DF8047B704780B582B000AF7860E3
:10416000396004F0F9FF034616221A604FF0FF335E
:1041700018460837BD4680BD80B582B000AF786074
:104180004FF0FF317868FFF7E7FF00BFFDE780B52C
:1041900086B000AFF860B9607A6000237B610AE006
:1041A000AFF300800146BB685A1CBA60CAB21A70ED
:1041B0007B6901337B617A697B689A42F0DB7B68BB
:1041C00018461837BD4680BD80B483B000AF786014
:1041D0004FF0FF3318460C37BD465DF8047B70473F
:1041E00080B483B000AF786039603B684FF4005210
:1041F0005A60002318460C37BD465DF8047B7047B3
:1042000080B483B000AF7860012318460C37BD46F8
:104210005DF8047B704780B485B000AFF860B9608A
:104220007A60002318461437BD465DF8047B70475A
:1042300080B586B000AF7860144A154BD31A7B6105
:104240007B693B61134B1B68002B02D1114B124A57
:104250001A60104B1A687B6813443A699A4207D275
:1042600004F07AFF03460C221A604FF0FF3309E096
:10427000084B1B68FB60074B1A687B681344054AB0
:104280001360FB6818461837BD4680BD00800120CA
:104290000004000068040020480A002080B400AF39
:1042A000064BD3F88830054A43F47003C2F88830CF
:1042B00000BFBD465DF8047B704700BF00ED00E025
:1042C000DFF834D0FFF7EAFF0C480D490D4A002310
:1042D00002E0D458C4500433C4188C42F9D30A4ABB
:1042E0000A4C002301E013600432A242FBD304F025
:1042F00039FFFFF733F870470080012000000020ED
:10430000440200202CDD000844020020480A00205E
:10431000FEE7000080B500AF0E4B1B680D4A43F46A
:10432000007313600B4B1B680A4A43F480631360ED
:10433000084B1B68074A43F480731360032000F0A6
:1043400031F90F2000F008F8FFF75AFD0023184656
:1043500080BD00BF003C024080B582B000AF7860F5
:10436000124B1A68124B1B7819464FF47A73B3FB41
:10437000F1F3B2FBF3F3184600F03BF90346002BD0
:1043800001D001230EE07B680F2B0AD80022796848
:104390004FF0FF3000F011F9064A7B6813600023EC
:1043A00000E0012318460837BD4680BD700000209C
:1043B000780000207400002080B400AF064B1B780A
:1043C0001A46064B1B681344044A136000BFBD46DF
:1043D0005DF8047B704700BF780000206C0400206B
:1043E00080B400AF034B1B681846BD465DF8047BE4
:1043F000704700BF6C04002080B584B000AF7860C7
:10440000FFF7EEFFB8607B68FB60FB68B3F1FF3F2E
:1044100005D00A4B1B781A46FB681344FB6000BFAB
:10442000FFF7DEFF0246BB68D31AFA689A42F7D854
:1044300000BF00BF1037BD4680BD00BF7800002020
:1044400080B485B000AF78607B6803F00703FB6041
:104450000C4BDB68BB60BA684FF6FF031340BB60D0
:10446000FB681A02BB68134343F0BF6343F4003395
:10447000BB60044ABB68D36000BF1437BD465DF81B
:10448000047B704700ED00E080B400AF044BDB68B4
:104490001B0A03F007031846BD465DF8047B70470E
:1044A00000ED00E080B483B000AF03463960FB71DB
:1044B00097F90730002B0ADB3B68DAB20C4997F911
:1044C00007301201D2B20B4483F800230AE03B68A4
:1044D000DAB20849FB7903F00F03043B1201D2B2B0
:1044E0000B441A7600BF0C37BD465DF8047B70475D
:1044F00000E100E000ED00E080B489B000AFF860BA
:10450000B9607A60FB6803F00703FB61FB69C3F1E4
:104510000703042B28BF0423BB61FB690433062B6C
:1045200002D9FB69033B00E000237B614FF0FF32BF
:10453000BB6902FA03F3DA43BB681A407B699A400D
:104540004FF0FF317B6901FA03F3D9437B680B40DD
:10455000134318462437BD465DF8047B70470000BE
:1045600080B582B000AF78607B68013BB3F1807F9B
:1045700001D301230FE00A4A7B68013B53600F21FE
:104580004FF0FF30FFF78EFF054B00229A60044B7F
:1045900007221A60002318460837BD4680BD00BFB9
:1045A00010E000E080B582B000AF78607868FFF777
:1045B00047FF00BF0837BD4680BD80B586B000AF5D
:1045C0000346B9607A60FB7300237B61FFF75CFFF1
:1045D00078617A68B9687869FFF78EFF024697F9C3
:1045E0000F3011461846FFF75DFF00BF1837BD4674
:1045F00080BD80B582B000AF78607868FFF7B0FF0B
:10460000034618460837BD4680BD000080B489B017
:1046100000AF7860396000237B6100233B61002399
:10462000BB610023FB6159E10122FB6902FA03F33C
:104630007B613B681B687A6913403B613A697B691F
:104640009A4240F048813B685B6803F00303012B0A
:1046500005D03B685B6803F00303022B30D17B6815
:104660009B68BB61FB695B00032202FA03F3DB4337
:10467000BA691340BB613B68DA68FB695B0002FA08
:1046800003F3BA691343BB617B68BA699A607B68BC
:104690005B68BB610122FB6902FA03F3DB43BA6981
:1046A0001340BB613B685B681B0903F00102FB69B7
:1046B00002FA03F3BA691343BB617B68BA695A60B3
:1046C0003B685B6803F00303032B17D07B68DB6850
:1046D000BB61FB695B00032202FA03F3DB43BA69A7
:1046E0001340BB613B689A68FB695B0002FA03F305
:1046F000BA691343BB617B68BA69DA603B685B687F
:1047000003F00303022B23D1FB69DA087B6808322C
:1047100053F82230BB61FB6903F007039B000F22B3
:1047200002FA03F3DB43BA691340BB613B681A69C1
:10473000FB6903F007039B0002FA03F3BA69134312
:10474000BB61FB69DA087B680832B96943F822105B
:104750007B681B68BB61FB695B00032202FA03F301
:10476000DB43BA691340BB613B685B6803F003023B
:10477000FB695B0002FA03F3BA691343BB617B6810
:10478000BA691A603B685B6803F44033002B00F0A1
:10479000A2800023FB60574B5B6C564A43F4804376
:1047A0005364544B5B6C03F48043FB60FB68524AD8
:1047B000FB699B08023352F82330BB61FB6903F0AD
:1047C00003039B000F2202FA03F3DB43BA69134091
:1047D000BB617B68494A934219D07B68484A93423F
:1047E00013D07B68474A93420DD07B68464A934278
:1047F00007D07B68454A934201D1042308E0072390
:1048000006E0032304E0022302E0012300E000238A
:10481000FA6902F0030292009340BA691343BB6144
:104820003549FB699B080233BA6941F82320384BAC
:104830009B68BB613B69DB43BA691340BB613B6862
:104840005B6803F48013002B03D0BA693B69134300
:10485000BB612F4ABB6993602D4BDB68BB613B6931
:10486000DB43BA691340BB613B685B6803F4001328
:10487000002B03D0BA693B691343BB61244ABB696F
:10488000D360234B5B68BB613B69DB43BA69134070
:10489000BB613B685B6803F40033002B03D0BA694B
:1048A0003B691343BB611A4ABB695360184B1B68D1
:1048B000BB613B69DB43BA691340BB613B685B6822
:1048C00003F48033002B03D0BA693B691343BB6107
:1048D0000F4ABB691360FB690133FB61FB690F2B56
:1048E0007FF6A2AE00BF00BF2437BD465DF8047B53
:1048F000704700BF0038024000380140000002400D
:104900000004024000080240000C02400010024077
:10491000003C014080B485B000AF78600B467B80DE
:104920007B681A697B881340002B02D00123FB733C
:1049300001E00023FB73FB7B18461437BD465DF88E
:10494000047B704780B483B000AF78600B467B80F7
:1049500013467B707B78002B03D07A887B689A6142
:1049600003E07B881A047B689A6100BF0C37BD4660
:104970005DF8047B704780B485B000AF78600B466B
:104980007B807B685B69FB607A88FB6813401A0454
:10499000FB68D9437B880B401A437B689A6100BF50
:1049A0001437BD465DF8047B7047000080B584B0C5
:1049B00000AF78607B68002B01D101232BE17B687D
:1049C00093F83D30DBB2002B06D17B68002283F8E0
:1049D0003C207868FFF740FA7B68242283F83D206A
:1049E0007B681B681A687B681B6822F001021A60EA
:1049F0007B681B681A687B681B6842F400421A6077
:104A00007B681B681A687B681B6822F400421A6086
:104A100002F0E0F8F8607B685B68814A934207D84F
:104A2000FB68804A934294BF01230023DBB206E077
:104A3000FB687D4A934294BF01230023DBB2002B25
:104A400001D00123E7E0FB68784AA2FB03239B0C1B
:104A5000BB607B681B685B6823F03F017B681B6859
:104A6000BA680A435A607B681B681B6A23F03F01DF
:104A70007B685B686A4A934202D8BB68013309E0ED
:104A8000BB684FF4967202FB03F3694AA2FB03234F
:104A90009B0901337A6812680B4313627B681B68B9
:104AA000DB6923F44F4222F0FF027B685B685C49BC
:104AB0008B4219D8FB68591E7B685B685B00B1FBB1
:104AC000F3F3591C40F6FC730B40002B0AD0FB6833
:104AD000591E7B685B685B00B1FBF3F30133C3F3E2
:104AE0000B0351E004234FE07B689B68002B11D13E
:104AF000FB68581E7B6859680B465B000B44B0FB93
:104B0000F3F30133C3F30B03002B0CBF012300238A
:104B1000DBB212E0FB68581E7B6859680B469B00AD
:104B20000B4499000B44B0FBF3F30133C3F30B03C5
:104B3000002B0CBF01230023DBB2002B01D001238B
:104B400022E07B689B68002B0ED1FB68581E7B68B7
:104B500059680B465B000B44B0FBF3F30133C3F31E
:104B60000B0343F400430FE0FB68581E7B68596851
:104B70000B469B000B4499000B44B0FBF3F301334D
:104B8000C3F30B0343F44043796809681343CB61D3
:104B90007B681B681B6823F0C0017B68DA697B684F
:104BA0001B6A1A437B681B680A431A607B681B6890
:104BB0009B6823F4034323F0FF037A6811697A6842
:104BC000D26811437A6812680B4393607B681B6854
:104BD000DB6823F0FF017B685A697B689B691A4395
:104BE0007B681B680A43DA607B681B681A687B680D
:104BF0001B6842F001021A607B6800221A647B681D
:104C0000202283F83D207B6800221A637B68002203
:104C100083F83E20002318461037BD4680BD00BFF4
:104C2000A08601007F841E00FF083D0083DE1B4339
:104C3000D34D621080B588B002AFF8607A601A4632
:104C40000B467B8113463B81FFF7CAFB7861FB680B
:104C500093F83D30DBB2202B40F0E0807B6900937D
:104C6000192301227049F86801F00EF90346002B60
:104C700001D00223D3E0FB6893F83C30012B01D133
:104C80000223CCE0FB68012283F83C20FB681B6810
:104C90001B6803F00103012B07D0FB681B681A682F
:104CA000FB681B6842F001021A60FB681B681A6807
:104CB000FB681B6822F400621A60FB68212283F8FB
:104CC0003D20FB68102283F83E20FB6800221A6416
:104CD000FB687A685A62FB683A895A85FB685B8D83
:104CE0009AB2FB681A85FB68504ADA6279897B6957
:104CF0003A6AF86800F0FAFD0346002B01D0012360
:104D00008DE000233B61FB681B685B693B61FB68CE
:104D10001B689B693B613B6966E07A69396AF868A0
:104D200001F0CCF90346002B0DD0FB681B6C042B63
:104D300007D1FB681B681A68FB681B6842F40072A5
:104D40001A6001236BE0FB685B6A1A78FB681B68DA
:104D50001A61FB685B6A5A1CFB685A62FB685B8DD0
:104D60009BB2013B9AB2FB685A85FB681B8D013BE5
:104D70009AB2FB681A85FB681B685B6903F0040341
:104D8000042B1BD1FB681B8D002B17D0FB685B6AC3
:104D90001A78FB681B681A61FB685B6A5A1CFB681F
:104DA0005A62FB685B8D9BB2013B9AB2FB685A85E5
:104DB000FB681B8D013B9AB2FB681A857A69396AD8
:104DC000F86801F0C3F90346002B0DD0FB681B6C9B
:104DD000042B07D1FB681B681A68FB681B6842F448
:104DE00000721A6001231AE0FB681B8D002B94D11E
:104DF000FB681B681A68FB681B6842F400721A6043
:104E0000FB68202283F83D20FB68002283F83E20C7
:104E1000FB68002283F83C20002300E002231846B0
:104E20001837BD4680BD00BF020010000000FFFF24
:104E300080B58CB002AFF8607A601A460B467B8171
:104E400013463B81FFF7CCFA7862FB6893F83D305C
:104E5000DBB2202B40F017827B6A009319230122DA
:104E60007C49F86801F010F80346002B01D00223BA
:104E70000AE2FB6893F83C30012B01D1022303E2E4
:104E8000FB68012283F83C20FB681B681B6803F069
:104E90000103012B07D0FB681B681A68FB681B68BD
:104EA00042F001021A60FB681B681A68FB681B6805
:104EB00022F400621A60FB68222283F83D20FB681E
:104EC000102283F83E20FB6800221A64FB687A688F
:104ED0005A62FB683A895A85FB685B8D9AB2FB6817
:104EE0001A85FB685C4ADA6279897B6A3A6BF868F2
:104EF00000F07EFD0346002B01D00123C4E1FB68D6
:104F00001B8D002B13D100233B62FB681B685B6980
:104F10003B62FB681B689B693B623B6AFB681B68E2
:104F20001A68FB681B6842F400721A6098E1FB681B
:104F30001B8D012B1BD1FB681B681A68FB681B6863
:104F400022F480621A600023FB61FB681B685B69C6
:104F5000FB61FB681B689B69FB61FB69FB681B6865
:104F60001A68FB681B6842F400721A6078E1FB68FB
:104F70001B8D022B1BD1FB681B681A68FB681B6822
:104F800022F480621A60FB681B681A68FB681B6861
:104F900042F400621A600023BB61FB681B685B6916
:104FA000BB61FB681B689B69BB61BB6958E1FB681F
:104FB0001B681A68FB681B6842F480621A60002351
:104FC0007B61FB681B685B697B61FB681B689B6995
:104FD0007B617B6944E1FB681B8D032B00F2F18050
:104FE000FB681B8D012B23D17A6A396BF86801F0BD
:104FF000F5F80346002B01D0012345E1FB681B684F
:105000001A69FB685B6AD2B21A70FB685B6A5A1C49
:10501000FB685A62FB681B8D013B9AB2FB681A85DC
:10502000FB685B8D9BB2013B9AB2FB685A8517E126
:10503000FB681B8D022B4ED17B6A00933B6B0022D9
:105040000649F86800F020FF0346002B08D0012332
:105050001AE100BF020010000000FFFF0400010081
:10506000FB681B681A68FB681B6842F400721A60D0
:10507000FB681B681A69FB685B6AD2B21A70FB682E
:105080005B6A5A1CFB685A62FB681B8D013B9AB233
:10509000FB681A85FB685B8D9BB2013B9AB2FB688B
:1050A0005A85FB681B681A69FB685B6AD2B21A7082
:1050B000FB685B6A5A1CFB685A62FB681B8D013BEC
:1050C0009AB2FB681A85FB685B8D9BB2013B9AB272
:1050D000FB685A85C4E07B6A00933B6B00226C49F5
:1050E000F86800F0D1FE0346002B01D00123CBE08D
:1050F000FB681B681A68FB681B6822F480621A60F0
:10510000FB681B681A69FB685B6AD2B21A70FB689D
:105110005B6A5A1CFB685A62FB681B8D013B9AB2A2
:10512000FB681A85FB685B8D9BB2013B9AB2FB68FA
:105130005A857B6A00933B6B00225549F86800F062
:10514000A3FE0346002B01D001239DE0FB681B68F2
:105150001A68FB681B6842F400721A60FB681B68DF
:105160001A69FB685B6AD2B21A70FB685B6A5A1CE8
:10517000FB685A62FB681B8D013B9AB2FB681A857B
:10518000FB685B8D9BB2013B9AB2FB685A85FB685A
:105190001B681A69FB685B6AD2B21A70FB685B6AAB
:1051A0005A1CFB685A62FB681B8D013B9AB2FB6874
:1051B0001A85FB685B8D9BB2013B9AB2FB685A85EE
:1051C0004EE07A6A396BF86801F008F80346002B64
:1051D00001D0012358E0FB681B681A69FB685B6A11
:1051E000D2B21A70FB685B6A5A1CFB685A62FB6891
:1051F0001B8D013B9AB2FB681A85FB685B8D9BB2E5
:10520000013B9AB2FB685A85FB681B685B6903F037
:105210000403042B24D1FB681B8D032B07D1FB68EF
:105220001B681A68FB681B6822F480621A60FB68BE
:105230001B681A69FB685B6AD2B21A70FB685B6A0A
:105240005A1CFB685A62FB681B8D013B9AB2FB68D3
:105250001A85FB685B8D9BB2013B9AB2FB685A854D
:10526000FB681B8D002B7FF4B6AEFB68202283F811
:105270003D20FB68002283F83E20FB68002283F873
:105280003C20002300E0022318462837BD4680BD9D
:105290000400010080B588B002AFF86008461146EE
:1052A0001A4603467B810B463B811346FB80FFF782
:1052B00097F87861FB6893F83D30DBB2202B40F023
:1052C000D9807B690093192301226D49F86800F0A9
:1052D000DBFD0346002B01D00223CCE0FB6893F8F2
:1052E0003C30012B01D10223C5E0FB68012283F889
:1052F0003C20FB681B681B6803F00103012B07D0EF
:10530000FB681B681A68FB681B6842F001021A60A0
:10531000FB681B681A68FB681B6822F400621A604D
:10532000FB68212283F83D20FB68402283F83E2061
:10533000FB6800221A64FB683A6A5A62FB68BA8CFE
:105340005A85FB685B8D9AB2FB681A85FB684D4AEB
:10535000DA62F8883A8979897B690193BB6A00939C
:105360000346F86800F012FC0346002B52D00123DC
:1053700081E07A69B96AF86800F0A0FE0346002B64
:105380000DD0FB681B6C042B07D1FB681B681A68E7
:10539000FB681B6842F400721A6001236BE0FB6833
:1053A0005B6A1A78FB681B681A61FB685B6A5A1CA7
:1053B000FB685A62FB681B8D013B9AB2FB681A8539
:1053C000FB685B8D9BB2013B9AB2FB685A85FB6818
:1053D0001B685B6903F00403042B1BD1FB681B8D66
:1053E000002B17D0FB685B6A1A78FB681B681A6190
:1053F000FB685B6A5A1CFB685A62FB681B8D013BA9
:105400009AB2FB681A85FB685B8D9BB2013B9AB22E
:10541000FB685A85FB681B8D002BAAD17A69B96A93
:10542000F86800F093FE0346002B0DD0FB681B6C60
:10543000042B07D1FB681B681A68FB681B6842F4E1
:1054400000721A60012316E0FB681B681A68FB688B
:105450001B6842F400721A60FB68202283F83D202A
:10546000FB68002283F83E20FB68002283F83C2082
:10547000002300E0022318461837BD4680BD00BF58
:10548000020010000000FFFF80B58CB002AFF86092
:10549000084611461A4603467B810B463B8113465C
:1054A000FB80FEF79DFF7862FB6893F83D30DBB22E
:1054B000202B40F014827B6A0093192301227B4940
:1054C000F86800F0E1FC0346002B01D0022307E25C
:1054D000FB6893F83C30012B01D1022300E2FB680A
:1054E000012283F83C20FB681B681B6803F0010362
:1054F000012B07D0FB681B681A68FB681B6842F029
:1055000001021A60FB681B681A68FB681B6822F4BA
:1055100000621A60FB68222283F83D20FB6840226B
:1055200083F83E20FB6800221A64FB683A6B5A62DB
:10553000FB68BA8E5A85FB685B8D9AB2FB681A8548
:10554000FB685B4ADA62F8883A8979897B6A019359
:10555000BB6B00930346F86800F0AEFB0346002BDC
:1055600001D00123BCE1FB681B8D002B13D100236C
:105570003B62FB681B685B693B62FB681B689B695D
:105580003B623B6AFB681B681A68FB681B6842F455
:1055900000721A6090E1FB681B8D012B1BD1FB6828
:1055A0001B681A68FB681B6822F480621A6000237B
:1055B000FB61FB681B685B69FB61FB681B689B699F
:1055C000FB61FB69FB681B681A68FB681B6842F497
:1055D00000721A6070E1FB681B8D022B1BD1FB6807
:1055E0001B681A68FB681B6822F480621A60FB68FB
:1055F0001B681A68FB681B6842F400621A6000238B
:10560000BB61FB681B685B69BB61FB681B689B69CE
:10561000BB61BB6950E100237B61FB681B685B6970
:105620007B61FB681B689B697B617B6944E1FB686C
:105630001B8D032B00F2F180FB681B8D012B23D106
:105640007A6AB96BF86800F0C9FD0346002B01D0F7
:10565000012345E1FB681B681A69FB685B6AD2B2EB
:105660001A70FB685B6A5A1CFB685A62FB681B8DE8
:10567000013B9AB2FB681A85FB685B8D9BB2013BCC
:105680009AB2FB685A8517E1FB681B8D022B4ED13D
:105690007B6A0093BB6B00220649F86800F0F4FBBC
:1056A0000346002B08D001231AE100BF02001000BE
:1056B0000000FFFF04000100FB681B681A68FB681C
:1056C0001B6842F400721A60FB681B681A69FB6869
:1056D0005B6AD2B21A70FB685B6A5A1CFB685A623A
:1056E000FB681B8D013B9AB2FB681A85FB685B8DDA
:1056F0009BB2013B9AB2FB685A85FB681B681A692A
:10570000FB685B6AD2B21A70FB685B6A5A1CFB6862
:105710005A62FB681B8D013B9AB2FB681A85FB68D5
:105720005B8D9BB2013B9AB2FB685A85C4E07B6AF1
:105730000093BB6B00226C49F86800F0A5FB0346A0
:10574000002B01D00123CBE0FB681B681A68FB68C3
:105750001B6822F480621A60FB681B681A69FB6888
:105760005B6AD2B21A70FB685B6A5A1CFB685A62A9
:10577000FB681B8D013B9AB2FB681A85FB685B8D49
:105780009BB2013B9AB2FB685A857B6A0093BB6B64
:1057900000225549F86800F077FB0346002B01D042
:1057A00001239DE0FB681B681A68FB681B6842F4D4
:1057B00000721A60FB681B681A69FB685B6AD2B2E8
:1057C0001A70FB685B6A5A1CFB685A62FB681B8D87
:1057D000013B9AB2FB681A85FB685B8D9BB2013B6B
:1057E0009AB2FB685A85FB681B681A69FB685B6A9A
:1057F000D2B21A70FB685B6A5A1CFB685A62FB687B
:105800001B8D013B9AB2FB681A85FB685B8D9BB2CE
:10581000013B9AB2FB685A854EE07A6AB96BF86828
:1058200000F0DCFC0346002B01D0012358E0FB68AC
:105830001B681A69FB685B6AD2B21A70FB685B6A04
:105840005A1CFB685A62FB681B8D013B9AB2FB68CD
:105850001A85FB685B8D9BB2013B9AB2FB685A8547
:10586000FB681B685B6903F00403042B24D1FB680D
:105870001B8D032B07D1FB681B681A68FB681B682C
:1058800022F480621A60FB681B681A69FB685B6A15
:10589000D2B21A70FB685B6A5A1CFB685A62FB68DA
:1058A0001B8D013B9AB2FB681A85FB685B8D9BB22E
:1058B000013B9AB2FB685A85FB681B8D002B7FF475
:1058C000B6AEFB68202283F83D20FB68002283F8F7
:1058D0003E20FB68002283F83C20002300E00223E6
:1058E00018462837BD4680BD0400010080B588B049
:1058F00002AFF8607A603B600B467B81FB68DB6A35
:105900007B617B69082B06D07B69012B03D07B6907
:1059100013F5803F08D1FB681B681A68FB681B6899
:1059200042F480721A600BE0FB681B6B122B07D1EC
:10593000FB681B681A68FB681B6842F480721A6077
:105940003B6800937B6800224FF00111F86800F07B
:105950009BFA0346002B0DD0FB681B681B6803F401
:105960008073B3F5807F03D1FB684FF400721A6433
:10597000032335E0FB681B69B3F5804F08D17B89B1
:10598000DBB21A46FB681B6802F0FE021A611BE0DC
:105990007B89DB11DBB203F00603DBB263F00F039C
:1059A000DAB2FB681B681A613B687A680E49F868CE
:1059B00000F0E4FA0346002B01D0012310E07B89BC
:1059C000DAB2FB681B681A613B687A680749F868B5
:1059D00000F0D4FA0346002B01D0012300E000239D
:1059E00018461837BD4680BD0800010002000100BE
:1059F00080B588B002AFF8607A603B600B467B816F
:105A0000FB68DB6A7B61FB681B681A68FB681B68C4
:105A100042F480621A607B69082B06D07B69012BF7
:105A200003D07B6913F5803F08D1FB681B681A68B7
:105A3000FB681B6842F480721A600BE0FB681B6B0A
:105A4000112B07D1FB681B681A68FB681B6842F4BE
:105A500080721A603B6800937B6800224FF001114E
:105A6000F86800F011FA0346002B0DD0FB681B68A4
:105A70001B6803F48073B3F5807F03D1FB684FF498
:105A800000721A64032379E0FB681B69B3F5804F49
:105A900008D17B89DBB243F00103DAB2FB681B68F3
:105AA0001A615FE07B89DB11DBB203F00603DBB236
:105AB00063F00F03DAB2FB681B681A613B687A680F
:105AC0003049F86800F05AFA0346002B01D0012350
:105AD00054E07B89DAB2FB681B681A613B687A681C
